:200000000C9463000C948B000C948B000C947F070C947F070C947F070C948B000C948B00BF
:200020000C94F7070C948B000C948B000C948B000C948B000C948B000C948B000C948B00F5
:200040000C9435070C948B000C9403070C94DD060C948B000C948B000C948B000C948B00C0
:200060000C948B000C948B0000000000240027002A0000000008000201000003040700009C
:200080000000000000000000000023002600290000000000250028002B000404040404045E
:2000A0000404020202020202030303030303010204081020408001020408102001020408CD
:2000C0001020AA08F01211241FBECFEFD8E0DEBFCDBF13E0A0E0B1E0E2E7F7E202C005908E
:2000E0000D92A635B107D9F725E0A6E5B3E001C01D92AA3BB207E1F710E0C2E6D0E004C0E9
:200100002197FE010E94A613C136D107C9F70E9488090C94AC130C940000ACE6B4E011963F
:200120008C93119790E0FC01E255FF4FE4911496EC931497FC01E656FF4FE491F0E0EE0FF4
:20014000FF1FEA57FF4F8591949113969C938E93129708950F931F93CF93DF93E091640576
:20016000F09165054091CE03808510E0481708F064C0142F11700091CD0301114FC0842F89
:2001800090E0880F991FE80FF91F0184F285E02D2CEE3FEF112311F024E130E0C091CB03D7
:2001A000D091CC032C0F3D1FC90163E470E00E947713E617F70760F0C90168E270E00E949A
:2001C00077136F5F7F4F81E090E06E177F0710F52C0F3D1FC90163E470E00E947713E617F7
:2001E000F70750F0C90168E270E00E9477136F5F7F4F6E177F0760F42C0F3D1FC90163E48E
:2002000070E00E947713E617F707E8F41FEF15C082E090E09093CA038093C9030F5F009306
:20022000CD038091C9039091CA030817190628F01092CD034F5F4093CE03812FDF91CF9189
:200240001F910F910895C90168E270E00E9477136F5F7F4F6E177F07C8F283E090E0DACF44
:20026000AF92BF92CF92DF92EF92FF920F931F93CF93DF936C017B018B01040F151FEB0138
:200280005E01AE18BF08C017D10759F06991D601ED91FC910190F081E02DC6010995892B76
:2002A00079F7C501DF91CF911F910F91FF90EF90DF90CF90BF90AF900895FC01538D448D33
:2002C000252F30E0842F90E0821B930B541710F0CF96089501970895FC01918D828D9817E1
:2002E00061F0A28DAE0FBF2FB11D5D968C91928D9F5F9F73928F90E008958FEF9FEF0895EF
:20030000FC01918D828D981731F0828DE80FF11D858D90E008958FEF9FEF0895FC01918DEC
:20032000228D892F90E0805C9F4F821B91098F73992708958FEC93E00E948E0121E0892BB2
:2003400009F420E0822F089580E090E0892B29F00E949A0181110C9400000895FC01A48D7B
:20036000A80FB92FB11DA35ABF4F2C91848D90E001968F739927848FA689B7892C93A08904
:20038000B1898C91837080648C93938D848D981306C00288F389E02D80818F7D80830895AE
:2003A000EF92FF920F931F93CF93DF93EC0181E0888F9B8D8C8D98131AC0E889F9898081E4
:2003C00085FF15C09FB7F894EE89FF896083E889F98980818370806480839FBF81E090E003
:2003E000DF91CF911F910F91FF90EF900895F62E0B8D10E00F5F1F4F0F731127E02E8C8DC9
:200400008E110CC00FB607FCFACFE889F989808185FFF5CFCE010E94AE01F1CFEB8DEC0F51
:20042000FD2FF11DE35AFF4FF0829FB7F8940B8FEA89FB8980818062CFCFCF93DF93EC01D0
:20044000888D8823B9F0AA89BB89E889F9898C9185FD03C0808186FD0DC00FB607FCF7CF88
:200460008C9185FFF2CF808185FFEDCFCE010E94AE01E9CFDF91CF910895833081F028F454
:20048000813099F08230A9F008958730A9F08830C9F08430B1F4809180008F7D03C08091AF
:2004A00080008F7780938000089584B58F7784BD089584B58F7DFBCF8091B0008F77809380
:2004C000B00008958091B0008F7DF9CFCF93DF93282F30E0F901EE58FF4F8491F901E2552B
:2004E000FF4FD491F901E656FF4FC491CC23A1F081110E943D02EC2FF0E0EE0FFF1FEA5736
:20050000FF4FA591B491EC91ED2381E090E009F480E0DF91CF91089580E090E0FACF1F939F
:20052000CF93DF93282F30E0F901EE58FF4F8491F901E255FF4FD491F901E656FF4FC49120
:20054000CC23A9F0162F81110E943D02EC2FF0E0EE0FFF1FE057FF4FA591B4918FB7F89483
:20056000EC91111108C0D095DE23DC938FBFDF91CF911F910895DE2BF8CFCF93DF9390E0C0
:20058000FC01E255FF4F249186569F4FFC0184918823D1F090E0880F991FFC01E859FF4F91
:2005A000A591B491FC01E057FF4FC591D49161110EC09FB7F8948C91E22FE0958E238C93EE
:2005C0002881E223E8839FBFDF91CF9108958FB7F894EC91E22BEC938FBFF6CF1F93CF9335
:2005E000DF93182FEB0161E00E94BD02209739F460E0812FDF91CF911F910C948F02CF3F21
:20060000D10511F461E0F5CFE12FF0E0EE58FF4FE491E33031F140F4E130B1F0E230E1F013
:20062000C038D1057CF7E4CFE73029F1E83059F1E430B1F780918000806280938000D0930E
:200640008B00C0938A0004C084B5806884BDC7BDDF91CF911F91089584B5806284BDC8BD8A
:20066000F7CF80918000806880938000D0938900C0938800EDCF8091B00080688093B000B9
:20068000C093B300E5CF8091B00080628093B000C093B400DDCF3FB7F89480919B03909135
:2006A0009C03A0919D03B0919E0326B5A89B05C02F3F19F00196A11DB11D3FBFBA2FA92FAC
:2006C000982F8827BC01CD01620F711D811D911D42E0660F771F881F991F4A95D1F70895FE
:2006E0008F929F92AF92BF92CF92DF92EF92FF924B015C010E944B036B017C010E944B03C0
:200700006C197D098E099F09683E734081059105A8F321E0821A9108A108B10888EEC80E9B
:2007200083E0D81EE11CF11C81149104A104B10429F7FF90EF90DF90CF90BF90AF909F9019
:200740008F9008952FB7F89460919703709198038091990390919A032FBF08952091A103F9
:200760003091A2032817390771F490919F038091A003981741F0E0919F03F0E0EA5AFC4F66
:20078000808190E008958FEF9FEF08950895EF92FF920F931F93CF93DF93DC015C96ED907F
:2007A000FC905D97E114F10479F481E090E013969C938E93129790E080E0DF91CF911F919F
:2007C0000F91FF90EF9008955196ED91FC91529750968C915097982F90950FB75E962C91A6
:2007E0005E97122F127021FD6095F8942081112319F1282B2083E7012197F1F728E0462FC8
:2008000050E0308160FF1AC0382B3083E7012197F1F7BA0175956795215089F7112381F0C9
:200820008081892380830FBF5C968D919C910197F1F781E090E0C1CF2923DCCF3923E5CF15
:200840009081892BEFCF2091A1033091A2032817390771F48091A00320919F0390E0805C23
:200860009F4F821B910960E470E00E948B13089590E080E008952091A1033091A20328177B
:200880003907B9F490919F038091A003981789F0E0919F03F0E0EA5AFC4F808120919F0306
:2008A00030E02F5F3F4F2F73332720939F0390E008958FEF9FEF089590E080E008957F9287
:2008C0008F929F92AF92BF92CF92DF92EF92FF920F931F93CF93DF93782EEA01E0916405BD
:2008E000F09165053F968B010C5E1F4F43E4C42ED12CC801B6010E9477135B0158E2E52E69
:20090000F12CC801B7010E9477138B010F5F1F4F6497CE01B6010E9477134B01CE01B70125
:200920000E947713EB01219624513109C901B6010E9477136B01C901B7010E9477136F5FA4
:200940007F4F20E030E0A901A0E0808191818A159B0570F10817190758F1828193818815A0
:20096000990518F1C817D90728F1220F331F441F551F21603496AF5F7A12E7CF20936005EB
:2009800030936105409362055093630581E0DF91CF911F910F91FF90EF90DF90CF90BF90FD
:2009A000AF909F908F907F9008958C159D0510F480E0EDCF68177907D8F3220F331F441FEB
:2009C000551FD8CFCF93C82F0E94660261E0892B09F060E08C2F0E948F028C2FCF910C94C2
:2009E00066028F929F92AF92BF92FF920F931F93CF93DF93F82EEB010FEF1FEFC017D10725
:200A000021F10E94A20380908F0590909005A0909105B0909205681979098A099B096530B8
:200A200071058105910550F30F5F1F4FB8018F2D0E94EE020E94A20360938F057093900598
:200A40008093910590939205D9CF2197209719F10E94A20300918F05109190052091910529
:200A600030919205601B710B820B930B653071058105910558F32197BE018F2D0E94EE02C5
:200A80000E94A20360938F05709390058093910590939205DBCFDF91CF911F910F91FF9034
:200AA000BF90AF909F908F900895FB0101900020E9F73197AF01461B570BDC01ED91FC910D
:200AC0000280F381E02D09946115710511F00C94550590E080E008954F925F926F927F923E
:200AE0008F929F92AF92BF92CF92DF92EF92FF920F931F93CF93DF93CDB7DEB7A1970FB6F0
:200B0000F894DEBF0FBECDBF8C016B01770FEE08FF08F7FE45C0DC01ED91FC910190F081F3
:200B2000E02D6DE209955C0122273327A9012C193D094E095F0919A2FE01B1967F019AE0CC
:200B4000492E512C612C712CCA01B901A30192010E941C13605DD7016E937D01211531056A
:200B60004105510589F7BD01C8010E9464058A0D9B1DA1960FB6F894DEBF0FBECDBFDF918A
:200B8000CF911F910F91FF90EF90DF90CF90BF90AF909F908F907F906F905F904F90089574
:200BA000A701960119A2FE01B1967F018AE0882E912CA12CB12CCA01B901A50194010E948C
:200BC0001C13605DD7016E937D01211531054105510589F7BD01C8010E946405CACF0F937D
:200BE0001F93CF93DF93EC010E9464058C0168E271E0CE010E945505800F911FDF91CF9175
:200C00001F910F9108950C946405833311F16CF48A3209F44BC024F4833209F49AC0089541
:200C2000813381F0823391F00895893509F49AC01CF4823589F00895823721F1893709F442
:200C4000A2C0089583E090E00C94E20485E090E0FBCF86E090E0F8CF60E087E00E948F0226
:200C600060E088E00E948F028091B6039091B703029609F4A1C08FEF9FEF9093B703809302
:200C8000B603089585E090E0909303018093020161E088E00E948F028091B6039091B7036B
:200CA000029609F489C081E090E0E7CF6BE271E08FEC93E00E94EF056AE28FEC93E00E94D1
:200CC000D0018FEC93E00E948E01892BC1F08FEC93E00E946C018A3291F466E471E08FEC6B
:200CE00093E00E94EF0561E571E08FEC93E00E94EF056AE271E08FEC93E00C94EF056DE55F
:200D000071E08FEC93E00E94EF0562E871E08FEC93E00E94EF056AE271E08FEC93E00E94B2
:200D2000EF0561E089E00E948F026AE070E080E090E00E94700360E089E00E948F0264E63D
:200D400070E080E090E00E94700361E089E00C948F028AE00E94660261E0892B09F060E0E1
:200D60008AE0F5CF85E090E090930301809302016AE971E08BE995E00E94640561E088E0F2
:200D80000E948F0290CF60E087E00E948F0261E088E00E948F028EEF9FEF9093B703809310
:200DA000B60360E083E00E948F0260E085E00E948F0260E086E0CBCF08951F920F920FB6D8
:200DC0000F9211242F933F934F935F936F937F938F939F93AF93BF93EF93FF938FEC93E0D7
:200DE0000E94AE01FF91EF91BF91AF919F918F917F916F915F914F913F912F910F900FBED6
:200E00000F901F9018951F920F920FB60F9211242F938F939F93EF93FF93E091DF03F091EC
:200E2000E0038081E091E503F091E60382FD1BC090818091E8038F5F8F732091E90382177E
:200E400041F0E091E803F0E0E153FC4F958F8093E803FF91EF919F918F912F910F900FBE08
:200E60000F901F9018958081F4CF1F920F920FB60F9211242F933F938F939F93AF93BF934A
:200E80008091970390919803A0919903B0919A033091960323E0230F2D3758F50196A11DAB
:200EA000B11D209396038093970390939803A0939903B0939A0380919B0390919C03A0915E
:200EC0009D03B0919E030196A11DB11D80939B0390939C03A0939D03B0939E03BF91AF91B3
:200EE0009F918F913F912F910F900FBE0F901F90189526E8230F0296A11DB11DD2CF1F92F5
:200F00000F920FB60F9211242F933F934F935F936F937F938F939F93AF93BF93EF93FF931D
:200F2000E091A103F091A203309749F0A685B7858585968D91FF14C09C918923A1F4FF9180
:200F4000EF91BF91AF919F918F917F916F915F914F913F912F910F900FBE0F901F9018955A
:200F60009C91892361F7A389B4899C918589809589238C93868997890197F1F7608D718D22
:200F8000A685B785558538E020E0CB010197F1F7822F90E095958795282F4C91452309F0B0
:200FA0002068315091F7868D81FD20958091A00390E001968F73992730919F03381799F0A2
:200FC000A091A003B0E0AA5ABC4F2C938093A003828D938D0197F1F7A389B4898C919589D6
:200FE000892B8C93ACCF868D8160868FF1CF1F920F920FB60F9211242F933F934F935F9385
:201000006F937F938F939F93AF93BF93EF93FF93E0916E04F0916F04908180917004982398
:2010200020917104309172042F3F320731F02F5F3F4F309372042093710480916C048111FB
:2010400035C0911116C020917104309172042536310558F01092730430937604209375046B
:2010600081E08093740480936C04109272041092710480917205813041F48091710591113B
:2010800061C061E0811161C02D9AFF91EF91BF91AF919F918F917F916F915F914F913F91D4
:2010A0002F910F900FBE0F901F90189580916C048130A1F49923E9F2E09174048E0F809312
:2010C0007404F0E0EE0FFF1FE459FB4F20917104309172043287218782E0C5CF80916C04F1
:2010E000823039F5911119C0E091740481E0E03720F08093730483E0B6CF8E0F809374048A
:20110000F0E0EE0FFF1FE459FB4F20917104309172043287218781E0A6CF209171043091E2
:2011200072042536310508F4A4CF83E080936C04A0CF80916C04833009F09BCF992309F494
:2011400094CF97CF882321F060E00E948F029DCF2D989BCFCF93DF931092D2031092D1033B
:2011600088EE93E0A0E0B0E08093D3039093D403A093D503B093D60328E031E03093D003BD
:201180002093CF0325EC30E03093DC032093DB0324EC30E03093DE032093DD0320EC30E003
:2011A0003093E0032093DF0321EC30E03093E2032093E10322EC30E03093E4032093E30337
:2011C00026EC30E03093E6032093E5031092E8031092E9031092EA031092EB0310929E0527
:2011E00010929D0580939F059093A005A093A105B093A2058AE191E090939C0580939B0516
:201200001092B2051092B1051092B4051092B3051092B6051092B5051092B8051092B705F2
:201220006091B9056E7F6D7F6093B9056695617081E0682784E00E948F0261E084E00E94DB
:20124000BD02E2EBF0E0E491E093AB05EEE9F0E0E491F0E0EE0FFF1FE057FF4F85919491D3
:201260009093AD058093AC0560E082E00E94BD028091B90581FD04C061E082E00E948F02EB
:2012800082E08093A705E0EBF0E0E491E093A805ECE9F0E0E491F0E0EE0FFF1FEA57FF4F69
:2012A000859194919093AA058093A9050E94A20360939705709398058093990590939A0577
:2012C0000E94A203609393057093940580939505909396050E94A20360938F0570939005CF
:2012E0008093910590939205CCE6D4E0D0938305C093820580E00E948D0010927105D09356
:201300006505C09364058CE0DF91CF910C948D00789484B5826084BD84B5816084BD85B541
:20132000826085BD85B5816085BD80916E00816080936E00109281008091810082608093A1
:20134000810080918100816080938100809180008160809380008091B10084608093B10096
:201360008091B00081608093B00080917A00846080937A0080917A00826080937A00809101
:201380007A00816080937A0080917A00806880937A001092C100E091DF03F091E00382E0E9
:2013A0008083E091DB03F091DC031082E091DD03F091DE038FEC80831092E703E091E303D5
:2013C000F091E40386E08083E091E103F091E203808180618083E091E103F091E2038081E0
:2013E00088608083E091E103F091E203808180688083E091E103F091E20380818F7D808390
:201400001092B6051092B5051092B4051092B3051092B2051092B1058DE991E09093B805E6
:201420008093B7059091A705963108F047C02DEB30E03093B2052093B1052BE931E0309357
:20144000B4052093B3052CE231E03093B6052093B5052091680084E0983048F031E09E3002
:2014600008F430E081E001C0880F3A95EAF7822B809368002DE630E0983050F02BE630E083
:201480009E3030F02CE630E0963110F030E020E03093AF052093AE05292F30E0983008F060
:2014A00013C181E001C0880F9A95EAF78093B0058091B7059091B8050197F1F78091B505D1
:2014C0009091B605892B49F1E091A103F091A20325E0EB39F20709F1309739F0A389B48992
:2014E0009C918589809589238C938091B9058E7F8093B9051092A00310929F038BE995E0B2
:201500009093A2038093A103E091AE05F091AF0580819091B005892B808360E080916D04A3
:201520000E94BD0282E08093B0008093B10084E68093B3008093B4001092B20080916C0495
:20154000833011F410926C0484E08093700061E08BE00E94BD0261E083E00E94BD0261E087
:2015600085E00E94BD0261E086E00E94BD0261E088E00E94BD0261E089E00E94BD0261E047
:201580008AE00E94BD0261E088E00E948F0261E089E00E948F0261E087E00E94BD0261E07D
:2015A00087E00E948F0266EA71E08BE995E00E94EF056AEA71E08BE995E00E94640566EB87
:2015C00071E08BE995E00E946405C3E04C2E512CD1E12D2E312C88248A94982C5401B5E04A
:2015E0006B2E712C80916C04833009F03DC48091A303811109C062EC71E08FEC93E00E9446
:20160000EF0581E08093A30385E794E09093C5038093C4038091740490E09093C70380931E
:20162000C60320917304222321F01092730410927404209173042093C8031092BC03109287
:20164000BD031092BE031092BF0320E820935F052091770430917804265831092C3531052C
:2016600090F484309105E9F58091790490917A048197489740F480917B0490917C04089796
:20168000089708F46BC04091C6035091C7034A31510508F48EC0E091C403F091C5038081A2
:2016A00091810A9708F06EC01092C0038092BC039092BD03A092BE03B092BF0381E08093CE
:2016C0005F0583E190E059C09E3040F42850310981E001C0880F2A95EAF7E8CE2E5031093E
:2016E000F7CF8434910579F68091790490917A04825491098F9738F620E332E040E956E002
:2017000060E372E080E20E945F04882309F4BBCFE091C403F091C503EA57FF4F8081918178
:201720000897089708F0AFCF8091600590916105A0916205B09163058093BC039093BD0302
:20174000A093BE03B093BF0380E28093C00388E090E09093B9038093B8030FC01092C0039F
:201760008092BC039092BD03A092BE03B092BF0381E880935F0588E090E090935605809376
:201780005505C5C08281938184974A9790F423E030E060E0C12CD12C760184819581089765
:2017A000089738F4868197818231910590F18097D0F181E08093CE0389E793E09093CC0383
:2017C0008093CB031092CD030E94AA00813009F0B7C0C12CD12C7601C0E0E0916405F091ED
:2017E000650590858091CE03891708F041C00E94AA00D82F0E94AA00D11130C0813009F0D4
:201800009FC0CC0CDD1CEE1CFF1C6894C0F8CF5FE4CF8930910568F2419758F6CC0CDD1C3E
:20182000EE1CFF1C06C0CC0CDD1CEE1CFF1C6894C0F86F5F2E5F3F4F34962417350708F4ED
:20184000ACCF6093C003C092BC03D092BD03E092BE03F092BF0383E190E07BCFD13009F095
:201860006FC081116DC0CC0CDD1CEE1CFF1CCFCF8C2F90E090935E0580935D05C092600509
:20188000D0926105E0926205F09263058C2D8F7390E090935A0580935905960146E0369517
:2018A00027954A95E1F72F7133273093580520935705960122273071232B31F4805C9F4FCE
:2018C00090935A058093590580E8D3FC88E880935F0581859285833E984028F480915F05B0
:2018E000816080935F058FE090E09093560580935505C093C003C092BC03D092BD03E0920B
:20190000BE03F092BF039093B9038093B80361E08BE00E948F028091BC030E9405068091A8
:201920006C04833011F410926C0468E270E080E090E00E94700360E08BE00E948F0294C2BA
:20194000E0916405F09165058385948588974D9708F046C0858596850C970B9708F040C03E
:2019600083E08093CE038CEB91E09093CC038093CB031092CD030E94AA00813089F50E94D6
:20198000AA00C82F81112CC0C12CD12C7601E0916405F091650590858091CE03891708F073
:2019A00069C00E94AA00182FC330B1F00E94AA00D82FC33021F40E94AA00D81311C0113033
:2019C00009F04EC0D1110CC0CC0CDD1CEE1CFF1C6894C0F8CF5FDBCF0E94AA00181731F331
:2019E0008091C6039091C7038236910508F48BC0E091C403F091C50382819381C39785977F
:201A000008F081C0848195814A97439708F07BC020EB31E040E155E060EB71E08CE20E9466
:201A20005F04882309F46FC080E38093C0038091600590916105A0916205B09163058093E2
:201A4000BC039093BD03A093BE03B093BF0382E090E29093BB038093BA0389E090E079CE46
:201A60001111BECFD13009F0BBCFCC0CDD1CEE1CFF1CB0CF8C2F90E090935E0580935D0598
:201A8000C0926005D0926105E0926205F09263052C2D30E08D2DC432F8F480E880935F0520
:201AA00030935A05209359058D2D90E09093580580935705E0FE03C088E880935F0581854C
:201AC000928583379A4028F480915F05816080935F0580E190E009CF90E990935F05D7FEF4
:201AE00003C098E990935F0530935A05209359058F7790E09093580580935705F0925C05A0
:201B0000E0925B05DCCF8091C6039091C703CC97E1F5E091C403F091C503828193818658D4
:201B200091098D35910588F584819581CE978C9760F526E232E04CE256E064EF71E08CE1AF
:201B40000E945F04882309F1E091C403F091C503EA58FF4F8081918107970897B0F48091C5
:201B6000600590916105A0916205B09163058093BC039093BD03A093BE03B093BF038CE11D
:201B80008093C00386E090E0E4CD2091C6033091C703E091C403F091C503828193812232F7
:201BA000310589F4AC01485051094730510558F4DF01AE5BBF4F4D915C914850510947308F
:201BC000510508F463C08D5791098735910508F46FC0E091C403F091C50382819381825427
:201BE00091098F9798F48091C6039091C7038430910509F097C0848195818197489730F404
:201C0000868197810897089708F4BBC0E0916405F09165058085823209F0C5C0E091C403BC
:201C2000F091C503828193810497059708F0BBC0848195810B970A9708F0B5C02CE033E0B0
:201C40004CE157E064E071E08FE00E945F04882309F4A9C08091600590916105A091620571
:201C6000B09163058093BC039093BD03A093BE03B093BF038FE08093C0035092B903409258
:201C8000B803509256054092550541CE1092C0038092BC039092BD03A092BE03B092BF0302
:201CA00081E080935F0570925605609255052FCE2432310508F48DCF84819581CE978C971F
:201CC00008F087CF2EE032E04AE256E06EE072E080E10E945F04882309F47BCFE091C40304
:201CE000F091C503EA5BFF4F808191810897079708F06FCF8091600590916105A0916205ED
:201D0000B09163058093BC039093BD03A093BE03B093BF0380E18093C0037092B903609285
:201D2000B803C1CF8434910508F470CF84819581815491098F9708F069CF29E232E04BE7A0
:201D400056E069E272E080E20E945F04882309F45DCF8091600590916105A0916205B0919F
:201D600063058093BC039093BD03A093BE03B093BF0380E28093C0033092B9032092B8032A
:201D80000DC01092C0038092BC039092BD03A092BE03B092BF0381E080935F053092560572
:201DA00020925505B4CD0091C6031091C7030630110508F453C0E091C403F091C50332962D
:201DC00025EC3DE94CE151E8C3E0D0E08AE0F82E8481958161917191F89E6001F99ED00C0A
:201DE0001124DB01AA0FBB1FAA0FBB1FAA0FBB1FE12CCA16DB0688F0F69ED001F79EB00D1C
:201E0000112463E0880F991F6A95E1F7EE24E394A817B90710F482E0E82E63E971E080E0A3
:201E200091E00E940C139B01AC012E2521960C171D0771F62093BC033093BD034093BE03E6
:201E40005093BF0380E28093C0031092B9031092B803109256051092550559CD80916C044A
:201E6000833011F410926C048FEC93E00E948E01892B39F161E08BE00E948F028FEC93E0CE
:201E80000E946C01C82F6EE572E08FEC93E00E9403066C2F8FEC93E00E94D00168E271E067
:201EA0008FEC93E00E9455058C2F0E94050668E270E080E090E00E94700360E08BE00E9404
:201EC0008F028BE995E00E942304892B09F18BE995E00E943B04C82F61E08BE00E948F0271
:201EE0006C2F8FEC93E00E94D0016AE271E08FEC93E00E94EF058C2F0E94050668E270E0C3
:201F000080E090E00E94700360E08BE00E948F020E94A203009197051091980520919905FD
:201F200030919A05601B710B820B930B683E73408105910508F430C1C091B603D091B70398
:201F400063E772E0CE3F8FEFD80709F4F7C265E972E0CF3FDC0709F4F1C2209709F016C2FC
:201F600081E090E09093B5038093B4038091AE039091AF0301969093AF038093AE0380E4C2
:201F800080937C0080917A00806480937A0080917A0086FDFCCFA091780080917900B82FC3
:201FA00024E630E00E949F1328E532E040E050E00E943E13B9013093B1032093B0038091A9
:201FC000AE039091AF03CC976CF08091AC039091AD031092AF031092AE0301969093AD031C
:201FE0008093AC038091AC039091AD03CC9724F01092AD031092AC03643671050CF462C141
:2020000084E690E09093B1038093B0038091B0039091B1038E31910508F05DC121E030E034
:202020003093B3032093B2032091AA033091AB032F5F3F4F3093AB032093AA039C012E51E9
:2020400031092832310508F04BC122E030E03093B3032093B2032091A8033091A9032F5F68
:202060003F4F3093A9032093A803865491094F9708F03BC15092B3034092B2038091A603DE
:202080009091A70301969093A7038093A60368EF72E08FEC93E00E9403066091B20370916C
:2020A000B3038FEC93E00E946C0563EA72E08FEC93E00E9403066091B0037091B1038FEC5D
:2020C00093E00E946C0565EA72E08FEC93E00E94EF058091AA039091AB030A970CF40AC15C
:2020E00081E090E09093A5038093A40360E087E00E948F028091A4039091A503892B09F082
:2021000020C18091B2039091B3038130910509F006C16BE970E083E090E00E94F1046BE9D8
:2021200070E083E00E94EE0268EA72E08FEC93E00E9403066091A4037091A5038FEC93E0EE
:202140000E946C0568E271E08FEC93E00E9455058091A4039091A5038130910509F0FEC068
:20216000709203016092020160E088E00E948F0282E090E09093B7038093B60361E083E06A
:202180000E948F020E94A20360939705709398058093990590939A050E94A20300919305B3
:2021A000109194052091950530919605601B710B820B930B643F71408105910508F475C07B
:2021C00088E00E9466026AEE72E0892B39F088E00E946602019731F46AEA71E08BE995E049
:2021E0000E9464058091B6039091B703029609F0AAC166EB71E08BE995E00E94640566EA4D
:2022000071E08BE995E00E94EF058091B4039091B5038130910509F0C5C18091B2039091A0
:20222000B3038130910509F095C166EF72E08BE995E00E9403066091B0037091B1038BE94A
:2022400095E00E946C0569E073E08BE995E00E9403066FE473E08BE995E00E94030660919B
:20226000AE037091AF038BE995E00E946C0563E573E08BE995E00E9403066091B00370912A
:20228000B1038BE995E00E946C0568E271E08BE995E00E9455050E94A20360939305709339
:2022A0009405809395059093960580E090E0892B09F498C90E949A01882309F490C90E9458
:2022C00000008DC9161617060CF4A0CE1092B1031092B0039BCE1092AB031092AA03AECEC2
:2022E0001092A9031092A803C0CE1092A7031092A603CDCE8091A8039091A9030A971CF04D
:2023000082E090E0EFCE8091A6039091A7030A970CF4F0CE5092A5034092A403E7CE8230E0
:20232000910539F466E970E085E090E00E94F104FBCE039709F0F8CE66E970E086E090E038
:20234000F5CF60E083E00E948F0260E085E00E948F0260E086E00E948F02E6CE8230910536
:2023600049F481E090E09093B7038093B60361E085E006CF039709F005CF81E090E09093D0
:20238000B7038093B60361E086E0FACEC130D10509F05EC06AEB72E08FEC93E00E9403062A
:2023A00060910201709103018FEC93E00E946C0560ED72E08FEC93E00E94EF05C0910201AC
:2023C000D09103012197D0930301C093020160E083E00E948F0260E085E00E948F0260E035
:2023E00086E00E948F0282E090E09093B5038093B4031C161D060CF4C5CE61E087E00E949B
:202400008F028AE090E090930301809302011092B3031092B2031092A5031092A403109230
:20242000B7031092B60360E085E00E948F0260E086E00E948F021092AB031092AA03109295
:20244000A9031092A8031092A7031092A6039ACEC230D10509F096CE80910001909101012A
:20246000181619060CF451C06AEB72E08FEC93E00E94030660910201709103018FEC93E0D7
:202480000E946C0560ED72E08FEC93E00E94EF0500910201109103010150110910930301BB
:2024A0000093020161E088E00E948F0260E083E00E948F0260E085E00E948F0260E086E056
:2024C0000E948F02D093B503C093B403101611060CF458CE1092B7031092B60361E087E0E2
:2024E0000E948F0270920301609202018AE090E090930101809300011092B3031092B203EC
:202500001092A5031092A40396CF5092B5034092B4030197909301018093000162ED72E02E
:202520008FEC93E00E94030660910001709101018FEC93E00E946C0560ED72E08FEC93E07F
:202540000E94EF051FCE6AE971E08BE995E00E9464055BCE8230910589F466EF72E08BE957
:2025600095E00E9403066091B0037091B1038BE995E00E946C0562E173E067CE039709F088
:2025800068CE66EF72E08BE995E00E9403066091B0037091B1038BE995E00E946C056DE127
:2025A00073E053CE82309105A9F46CE273E08BE995E00E94030660910201709103018BE920
:2025C00095E00E946C0560ED72E08BE995E00E94EF053FCE039709F03CCE63E473E0F5CF4D
:2025E0008AE191E090939C0580939B058091A1039091A2038B59954071F4E091AE05F0914A
:20260000AF0590818091B0058095892380831092A2031092A1030895DB018F939F930E946F
:202620005D13BF91AF91A29F800D911DA39F900DB29F900D11240895A1E21A2EAA1BBB1B19
:20264000FD010DC0AA1FBB1FEE1FFF1FA217B307E407F50720F0A21BB30BE40BF50B661F88
:20266000771F881F991F1A9469F760957095809590959B01AC01BD01CF010895052E97FBEA
:202680001EF400940E94551357FD07D00E941C1307FC03D04EF40C945513509540953095EF
:2026A00021953F4F4F4F5F4F089590958095709561957F4F8F4F9F4F08950E946813A59F20
:2026C000900DB49F900DA49F800D911D11240895A29FB001B39FC001A39F700D811D112486
:2026E000911DB29F700D811D1124911D0895AA1BBB1B51E107C0AA1FBB1FA617B70710F08E
:20270000A61BB70B881F991F5A95A9F780959095BC01CD01089597FB072E16F4009407D0AA
:2027200077FD09D00E94771307FC05D03EF4909581959F4F0895709561957F4F08950E9448
:202740006813B7FF0895821B930B0895EE0FFF1F0590F491E02D099410E0C2E6D0E004C0E8
:20276000FE010E94A6132196C336D107C9F7F894FFCF0A000A0000000000D00130015D01E9
:202780001D028E016C01800100000000C70330015C04C60323043B04AE030D0A0054656E24
:2027A00074616E646F20636F6E65637461722D736520616F20706300436F6E65637461648B
:2027C0006F2E004465736C6967616E646F2E004EC3A36F20666F6920706F7373C3AD766583
:2027E0006C20636F6E65637461722D736520616F207063004465736C6967616E646F206D8F
:20280000616E75616C6D656E74652E002A4952304732353542302A002A5420002A5252324E
:202820003535473042302A002A4952323535473042302A005468652066756E6374696F6E00
:20284000206465636F64652826726573756C74732929206973206465707265636174656415
:2028600020616E64206D6179206E6F7420776F726B20617320657870656374656421204A59
:2028800075737420757365206465636F6465282920776974686F7574206120706172616DB4
:2028A0006574657220616E6420497252656365697665722E6465636F64656449524461745B
:2028C000612E3C6669656C646E616D653E202E00526563656269646F20646F205365726939
:2028E000616C3A2000497272696761C3A7C3A36F206175746F6D617469636120646573610F
:2029000074697661646100426F6D6261206174697661646100280025290048756D69646195
:202920006465206DC3A96469613A20005072C3B378696D61206C65697475726120656D3A24
:20294000200073004465736C6967616E646F206120626F6D626120656D3A20002A525230FE
:202960004732353542302A002A5448756D696461646520617475616C3A2000252028736563
:20298000636F290025202868756D69646F2900252028656E636861726361646F29002A5404
:2029A00050726F78696D61206C65697475726120656D3A20002A544972726967616E646FB8
:2029C000002A485800590000FFFFFFFFFFFFFFFFFFFFFFFFFFFFFFFFFFFFFFFFFFFFFFFFEC
:2029E000FFFFFFFFFFFFFFFFFFFFFFFFFFFFFFFFFFFFFFFFFFFFFFFFFFFFFFFFFFFFFFFFF7
:202A00006F002A4858005900FFFFFFFFFFFFFFFFFFFFFFFFFFFFFFFFFFFFFFFFFFFFFFFF3C
:202A2000FFFFFFFFFFFFFFFFFFFFFFFFFFFFFFFFFFFFFFFFFFFFFFFFFFFFFFFFFFFFFFFFB6
:202A4000FFFFFFFFFFFFFFFFFFFFFFFFFFFFFFFFFFFFFFFFFFFFFFFFFFFFFFFFFFFFFFFF96
:202A6000FFFFFFFFFFFFFFFFFFFFFFFFFFFFFFFFFFFFFFFFFFFFFFFFFFFFFFFFFFFFFFFF76
:202A8000FFFFFFFFFFFFFFFFFFFFFFFFFFFFFFFFFFFFFFFFFFFFFFFFFFFFFFFFFFFFFFFF56
:207E0000112484B714BE81FFF0D085E08093810082E08093C00088E18093C10086E08093FC
:207E2000C20080E18093C4008EE0C9D0259A86E020E33CEF91E0309385002093840096BBAD
:207E4000B09BFECF1D9AA8958150A9F7CC24DD2488248394B5E0AB2EA1E19A2EF3E0BF2E79
:207E6000A2D0813461F49FD0082FAFD0023811F0013811F484E001C083E08DD089C0823404
:207E800011F484E103C0853419F485E0A6D080C0853579F488D0E82EFF2485D0082F10E0A0
:207EA000102F00270E291F29000F111F8ED068016FC0863521F484E090D080E0DECF84364D
:207EC00009F040C070D06FD0082F6DD080E0C81680E7D80618F4F601B7BEE895C0E0D1E0ED
:207EE00062D089930C17E1F7F0E0CF16F0E7DF0618F0F601B7BEE89568D007B600FCFDCF1A
:207F0000A601A0E0B1E02C9130E011968C91119790E0982F8827822B932B1296FA010C016F
:207F200087BEE89511244E5F5F4FF1E0A038BF0751F7F601A7BEE89507B600FCFDCF97BE85
:207F4000E89526C08437B1F42ED02DD0F82E2BD03CD0F601EF2C8F010F5F1F4F84911BD0B8
:207F6000EA94F801C1F70894C11CD11CFA94CF0CD11C0EC0853739F428D08EE10CD085E9AE
:207F80000AD08FE07ACF813511F488E018D01DD080E101D065CF982F8091C00085FFFCCF0A
:207FA0009093C60008958091C00087FFFCCF8091C00084FD01C0A8958091C6000895E0E68F
:207FC000F0E098E1908380830895EDDF803219F088E0F5DFFFCF84E1DECF1F93182FE3DF47
:207FE0001150E9F7F2DF1F91089580E0E8DFEE27FF270994FFFFFFFFFFFFFFFFFFFF040425
:00000001FF
